:020000040800F2
:100000000050002049250008DD240008DF240008F6
:10001000E1240008E3240008E524000800000000B3
:100020000000000000000000000000007102000855
:10003000E724000800000000110300085503000831
:1000400091250008912500089125000891250008B8
:1000500091250008912500089125000891250008A8
:100060009125000891250008912500089125000898
:100070009125000891250008912500089125000888
:100080009125000891250008912500089125000878
:100090009125000891250008912500089125000868
:1000A0009125000891250008912500089125000858
:1000B0009125000891250008E924000891250008F1
:1000C0009125000891250008912500089125000838
:1000D0009125000861170008912500089125000866
:1000E00091250008912500089125000800000000D6
:1000F0000000000000000000000000000000000000
:0C01000000000000000000005FF808F1A3
:1001100010B5054C237833B9044B13B10448AFF341
:1001200000800123237010BD0C000020000000009F
:100130000426000808B5034B1BB103490348AFF37D
:10014000008008BD00000000100000200426000808
:1001500000F1080343604FF0FF328260C360036127
:1001600000230360704700230361704743684B60BE
:100170009A688A609A6851609960086103680133DF
:100180000360704730B40D68B5F1FF3F02D000F155
:10019000080202E0026904E01A4653681C68A5429E
:1001A000FAD253684B6099608A60516008610368B5
:1001B0000133036030BC7047036942688168916015
:1001C0008268416851605A68904206D000220261FC
:1001D0001A68013A1A601868704782685A60F5E731
:1001E00082B0002301930D4B1B68B3F1FF3F08D091
:1001F0004FF0500383F31188BFF36F8FBFF34F8F1E
:10020000FEE74FF0500383F31188BFF36F8FBFF306
:100210004F8F019B002BFCD002B0704700000020E4
:1002200006480068006880F3088862B661B6BFF3CC
:100230004F8FBFF36F8F00DF00BF000008ED00E0BD
:100240004FF0807340F8043C21F0010140F8081C95
:10025000034B40F80C3C40F8202C4038704700BF5E
:10026000E1010008000000000000000000000000A4
:10027000074B19680868B0E8F00F80F30988BFF3EE
:100280006F8F4FF0000080F311884EF00D0E704715
:10029000300000204FF0500383F31188BFF36F8FBD
:1002A000BFF34F8F0A4A136801331360012B0DD13E
:1002B000084B1B6813F0FF0F08D04FF0500383F377
:1002C0001188BFF36F8FBFF34F8FFEE7704700BFFA
:1002D0000000002004ED00E0094B1B6843B94FF01B
:1002E000500383F31188BFF36F8FBFF34F8FFEE787
:1002F000013B034A13600BB983F31188704700BFB9
:1003000000000020000000000000000000000000CD
:10031000EFF30980BFF36F8F0D4B1A6820E9F00FE0
:1003200010602DE908404FF0500080F3118800F074
:10033000AFFE4FF0000080F31188BDE80840196857
:100340000868B0E8F00F80F30988BFF36F8F70473B
:100350003000002008B54FF0500383F31188BFF33D
:100360006F8FBFF34F8F00F06DFD18B14FF08052CB
:10037000024B1A60002383F3118808BD04ED00E0EE
:10038000084A0023136008490B60084B1B680849A2
:10039000A1FB03139B09013B06490B600723136074
:1003A000704700BF10E000E018E000E00800002007
:1003B000D34D621014E000E010B582B0274B1A78DC
:1003C000D2B20192FF221A701B78DBB28DF8033093
:1003D0009DF8033003F05003214A13700722214B8C
:1003E0001A6009E01F4A1368013B13609DF803304F
:1003F0005B00DBB28DF803309DF8033013F0800F03
:10040000F0D1184B1B68032B08D04FF0500383F337
:100410001188BFF36F8FBFF34F8FFEE71B0203F40A
:10042000E063104A1360019BDBB20C4A13700E4B61
:100430001A6842F470021A601A6842F070421A6038
:10044000FFF79EFF0024094B1C60FFF7E9FE00F058
:100450001FFEFFF7C5FE204602B010BD00E400E01D
:10046000280000202C00002020ED00E000000020EB
:10047000EFF305830F2B0FD9104A9B5CDBB2104AB8
:100480001278934208D24FF0500383F31188BFF3E0
:100490006F8FBFF34F8FFEE70A4B1B6803F4E063D7
:1004A000094A1268934208D94FF0500383F3118828
:1004B000BFF36F8FBFF34F8FFEE77047F0E300E0AD
:1004C000280000200CED00E02C00002010B50446B0
:1004D000FFF7E0FEA26BE36B9A4204D00024FFF723
:1004E000FBFE204610BD0124F9E710B50446FFF7D6
:1004F000D1FEA36B23B10024FFF7EEFE204610BD12
:100500000124F9E770B504461646856B026C4AB9BA
:10051000036853BB806800F019FF0023A360013516
:10052000A56370BD6EB9406802F058F8226C63682C
:1005300013446360A268934219D323686360002068
:10054000EDE7C06802F04AF8236C5B42E2681A44A7
:10055000E26021688A4202D2A2681344E360022E5C
:1005600007D145B1013D0020D9E70020D7E70020A1
:10057000D5E70020D3E70020D1E7026C72B110B5B7
:100580000346C4681444C4608068844201D3186878
:10059000D8600846D96802F021F810BD704738B518
:1005A0000546FFF777FE95F8454064B201E0013C4F
:1005B00064B2002C0ADD6B6A43B105F1240000F03F
:1005C0002DFE0028F3D000F0BBFEF0E7FF2385F8F6
:1005D0004530FFF781FEFFF75DFE95F8444064B2B9
:1005E00001E0013C64B2002C0ADD2B6943B105F146
:1005F000100000F013FE0028F3D000F0A1FEF0E799
:10060000FF2385F84430FFF767FE38BD38B530B3B7
:1006100004460D46FFF73EFE2168E26B236C03FBA8
:100620000210A0600020A0636160013A02FB031386
:10063000E360FF2384F8443084F84530C5B923696A
:10064000F3B104F1100000F0E9FDC8B14FF08052A1
:100650000D4B1A60BFF34F8FBFF36F8F10E04FF059
:10066000500383F31188BFF36F8FBFF34F8FFEE703
:1006700004F11000FFF76CFD04F12400FFF768FDA2
:10068000FFF72AFE012038BD04ED00E010B5029B03
:100690000C4639B91B60D8631C6401211846FFF76A
:1006A000B5FF10BD1A60F6E740B94FF0500383F371
:1006B0001188BFF36F8FBFF34F8FFEE710B584B083
:1006C000044663B1A2B1A9B10120A8B94FF050030B
:1006D00083F31188BFF36F8FBFF34F8FFEE74FF0A7
:1006E000500383F31188BFF36F8FBFF34F8FFEE783
:1006F0000120EAE70020E8E70AB901B1002040B98B
:100700004FF0500383F31188BFF36F8FBFF34F8F08
:10071000FEE7482003900398482808D04FF0500384
:1007200083F31188BFF36F8FBFF34F8FFEE720462F
:100730001C46039B00949DF81830FFF7A7FF204646
:1007400004B010BDF0B585B0019260B1044699B116
:100750000122BAB94FF0500383F31188BFF36F8FB2
:10076000BFF34F8FFEE74FF0500383F31188BFF3C1
:100770006F8FBFF34F8FFEE7026C0AB90122E8E7E3
:100780000022E6E7022B09D06AB94FF0500383F349
:100790001188BFF36F8FBFF34F8FFEE7E06B012827
:1007A000F2D00022F0E71D460E46002739E02A4627
:1007B00031462046FFF7A6FE636A8BB104F12400A0
:1007C00000F02CFD38B14FF08052394B1A60BFF366
:1007D0004F8FBFF36F8FFFF77FFD012005B0F0BD96
:1007E0000028F8D04FF08052314B1A60BFF34F8F82
:1007F000BFF36F8FEFE7FFF76FFD0020EEE702A872
:1008000000F052FD012719E0002384F8443021E074
:10081000002384F8453023E02046FFF7C0FE00F0B7
:1008200091FBFFF737FDA26BE36B9A42BFD3022D1A
:10083000BDD0019B002BDED0002FE0D0FFF74CFD98
:1008400000F0F8FAFFF726FD94F844305BB2B3F1FC
:10085000FF3FD9D094F845305BB2B3F1FF3FD7D01A
:10086000FFF73AFD01A902A800F02AFDC8B9204609
:10087000FFF72CFE0028CFD0019904F1100000F002
:10088000B5FC2046FFF78BFE00F05CFB0028C8D1CA
:100890004FF08052064B1A60BFF34F8FBFF36F8F3C
:1008A000BFE72046FFF77BFE00F04CFB002095E7FA
:1008B00004ED00E02DE9F84360B1044699B1012050
:1008C000B8B94FF0500383F31188BFF36F8FBFF3B4
:1008D0004F8FFEE74FF0500383F31188BFF36F8F04
:1008E000BFF34F8FFEE7006C08B90120E8E7002056
:1008F000E6E7022B09D068B94FF0500383F3118863
:10090000BFF36F8FBFF34F8FFEE7E56B012DF2D082
:100910000020F0E71F4690468946FFF7A9FDEFF358
:1009200011864FF0500383F31188BFF36F8FBFF32D
:100930004F8FA26BE36B9A4201D3022F21D194F81F
:1009400045506DB23A4649462046FFF7DBFDB5F10A
:10095000FF3F10D1636AB3B104F1240000F05EFCE4
:1009600098B1B8F1000F12D00120C8F8000086F34A
:100970001188BDE8F8836B1C5BB284F84530012018
:10098000F5E70020F3E70120F1E70120EFE7012080
:10099000EDE70000F0B585B0019260B1044699B171
:1009A0000123BBB94FF0500383F31188BFF36F8F5E
:1009B000BFF34F8FFEE74FF0500383F31188BFF36F
:1009C0006F8FBFF34F8FFEE7036C0BB90123E8E78E
:1009D0000023E6E70E4600273AE031462046FFF7BF
:1009E000CCFD013DA563236963B104F1100000F063
:1009F00015FC38B14FF08052354B1A60BFF34F8F62
:100A0000BFF36F8FFFF768FC012005B0F0BDFFF763
:100A100063FC0020F9E702A800F046FC012721E072
:100A2000002384F8443029E0002384F845302BE08B
:100A30002046FFF7B4FD00F085FA09E02046FFF7F5
:100A4000AEFD00F07FFA2046FFF74FFD00283DD1B4
:100A5000FFF720FCA56B002DBFD1019B002BD6D04A
:100A6000002FD8D0FFF738FC00F0E4F9FFF712FCB4
:100A700094F844305BB2B3F1FF3FD1D094F84530E5
:100A80005BB2B3F1FF3FCFD0FFF726FC01A902A86C
:100A900000F016FC0028D1D12046FFF726FD0028E3
:100AA000C6D0019904F1240000F0A0FB2046FFF716
:100AB00076FD00F047FA0028CAD14FF08052044B6F
:100AC0001A60BFF34F8FBFF36F8FC1E700209CE721
:100AD00004ED00E0064B1B68012BFBD94FF0805260
:100AE000044B1A60BFF34F8FBFF36F8FF2E700BF65
:100AF0003C00002004ED00E0084B1B681B683BB184
:100B0000064B1B68DB68DB685A68054B1A60704748
:100B10004FF0FF32024B1A60704700BF34000020D4
:100B2000400100202DE9F04781469A46089EDDF8F5
:100B300024800A9C276B02F18042013A07EB82076E
:100B400027F00707002936D1002384F834300BE062
:100B5000D05CE11881F83400D15C11B10133092B6C
:100B6000F6D9002384F83D30092E00D90926E66223
:100B7000266400256564201DFFF7F5FA04F11800CE
:100B8000FFF7F1FA2461C6F10A06A66164622B46FA
:100B9000042B13D90023E36584F86030524649469C
:100BA0003846FFF74DFB2060B8F1000F01D0C8F8C0
:100BB0000040BDE8F0870A460023D0E703F11202A7
:100BC000002144F822100133E2E7000038B5002488
:100BD000092C12D90D4D2846FFF7BAFA0C4C2046C5
:100BE000FFF7B6FA0B48FFF7B3FA0B48FFF7B0FA76
:100BF0000A4B1D600A4B1C6038BD1420094B00FBDA
:100C00000430FFF7A5FA0134E2E700BF1801002025
:100C10002C01002048010020600100203400002049
:100C2000380000203C00002010B50446FFF732FBDE
:100C3000204A1368013313601F4B1B68002B2CD113
:100C40001D4B1C601368012B01D1FFF7BFFF1B4A2E
:100C5000136801331360E36A194A1268934201D999
:100C6000174A1360211D1420164A00FB0320FFF7CA
:100C70007DFAFFF731FB144B1B686BB10E4B1B6801
:100C8000DA6AE36A9A4207D24FF080520F4B1A6039
:100C9000BFF34F8FBFF36F8F10BD0B4B1B68002B43
:100CA000D5D1054B1B68DA6AE36A9A42CFD8024B6A
:100CB0001C60CCE70401002030000020100100205F
:100CC000140100203C0000205C01002004ED00E045
:100CD00070B504460E46174B1D68174B1868043054
:100CE000FFF76AFAB4F1FF3F13D02C44124B1B6894
:100CF0005C60A54216D8114B18680F4B1968043177
:100D0000FFF740FA0E4B1B689C4201D20C4B1C6053
:100D100070BD002EE9D0084B196804310948FFF76F
:100D200025FA70BD084B1868034B19680431FFF7AA
:100D300029FA70BD7401002030000020340000202A
:100D400040010020600100203800002070B586B00E
:100D50000B9D0C9C75B1B4B164260496049E642E60
:100D60001AD04FF0500383F31188BFF36F8FBFF396
:100D70004F8FFEE74FF0500383F31188BFF36F8F5F
:100D8000BFF34F8FFEE74FF0500383F31188BFF39B
:100D90006F8FBFF34F8FFEE7049E256300250395F9
:100DA000029405AD01950A9D0095FFF7BBFE204614
:100DB000FFF73AFF059806B070BD000010B588B087
:100DC00000240594069407AA06A905A800F03CFB98
:100DD000059B0293069B019300942346079A1049B2
:100DE0001048FFF7B3FF18B101231BB908B010BDBD
:100DF0000023FAE74FF0500383F31188BFF36F8F9E
:100E0000BFF34F8F4FF0FF32074B1A600122074BA1
:100E10001A600022064B1A60FFF7CEFAE6E700BF21
:100E200030260008D50A0008400100205C0100209F
:100E300074010020024A136801331360704700BF39
:100E40000C010020F8B5344B1B68002B59D1334BF3
:100E50001C6801341C60C4B9314B1B681B6843B16A
:100E60004FF0500383F31188BFF36F8FBFF34F8FA1
:100E7000FEE72B4A11682B4B1868106019602A4A4C
:100E8000136801331360FFF737FE284B1B689C4241
:100E90002DD200263AE00126214B1B681B6843B384
:100EA0001F4B1B68DB68DD686B689C4226D32F1DD7
:100EB0003846FFF781F9AB6A1BB105F11800FFF75F
:100EC0007BF9EB6A1A4A1268934201D9184A1360F7
:100ED00003EB83039A00394616481044FFF746F99E
:100EE000EA6A154B1B68DB6A9A42D4D2D4E7002623
:100EF000D2E74FF0FF320D4B1A6007E00B4A136048
:100F000004E00E4A13680133136000260C4B1B6883
:100F100003B101263046F8BD0C0100207401002009
:100F2000340000203800002044010020400100204F
:100F3000140100203C0000203000002008010020A7
:100F40007801002038B5354B1B6843B94FF050038A
:100F500083F31188BFF36F8FBFF34F8FFEE7FFF767
:100F600099F92E4B1A68013A1A601B68002B50D170
:100F70002B4B1B6823B90024FFF7AEF9204638BD80
:100F80000024284B1B681BB3264BDB68DC6804F18C
:100F90001800FFF711F9251D2846FFF70DF9E36A40
:100FA000214A1268934201D91F4A136003EB83035D
:100FB0009A0029461D481044FFF7D8F8E26A1C4BF6
:100FC0001B68DB6A9A42DCD301221A4B1A60D8E70D
:100FD0000CB1FFF791FD184B1C6874B9154B1B68D9
:100FE000CBB14FF08052154B1A60BFF34F8FBFF358
:100FF0006F8F0124C0E7013C07D0FFF723FF0028D3
:10100000F9D001220B4B1A60F5E700220A4B1A6057
:10101000E4E70024B0E70024AEE700BF0C010020A5
:101020000401002048010020140100203C000020A1
:1010300030000020780100200801002004ED00E0CD
:1010400010B5A8B10446104B1B6843B14FF05003D4
:1010500083F31188BFF36F8FBFF34F8FFEE7FFF766
:10106000E9FE00212046FFF733FEFFF76BFF00E0AB
:10107000002038B94FF08052044B1A60BFF34F8FF5
:10108000BFF36F8F10BD00BF0C01002004ED00E026
:10109000204B1B686BB900221F4B1A601F4B1B684B
:1010A00003EB83018A001E498A587AB92BB1013BB0
:1010B000F6E70122184B1A6070474FF0500383F394
:1010C0001188BFF36F8FBFF34F8FFEE710B4084650
:1010D0009A00D418A10001444C6864684C601A441A
:1010E00091000831084484420CD003EB8302910044
:1010F0000B4A0A445268D1680A4A1160074A1360D1
:1011000010BC7047606803EB83029100044A0A44F4
:101110005060EAE70C010020780100201401002053
:101120003C0000203000002038B50446FFF7B2F83C
:10113000E4B1251D2846FFF73FF8A36A1BB104F16F
:101140001800FFF739F829462248FFF70FF894F8FE
:101150006030DBB2012B0CD0FFF7BEF81E4B1B68D2
:101160005BB91E4B1B689C420ED038BD1B4B1C68E4
:10117000DFE7002384F86030EEE7FFF78BF8FFF736
:10118000BBFCFFF7A9F8ECE7134B1B68A3B1144BAA
:101190001B6843B14FF0500383F31188BFF36F8F87
:1011A000BFF34F8FFEE74FF080520E4B1A60BFF334
:1011B0004F8FBFF36F8F38BD064B1A680A4B1B6801
:1011C0009A4203D10022054B1A6038BDFFF760FF39
:1011D000CBE700BF600100205C0100203000002050
:1011E0000C01002004ED00E00401002040B94FF0A4
:1011F000500383F31188BFF36F8FBFF34F8FFEE768
:1012000010B50C46044B19681831FEF7BBFF0121DD
:101210002046FFF75DFD10BD3000002038B5C368E3
:10122000DC6824B304F118052846FEF7C5FF184B07
:101230001B682BBB251D2846FEF7BEFFE36A154A37
:101240001268934201D9134A136003EB83039A0097
:10125000294611481044FEF789FFE26A0F4B1B68CC
:10126000DB6A9A4211D901200D4B186038BD4FF04E
:10127000500383F31188BFF36F8FBFF34F8FFEE7E7
:1012800029460848FEF772FFE7E7002038BD00BF97
:101290000C010020140100203C0000203000002040
:1012A0007801002048010020034B1B680360034BBA
:1012B0001B684360704700BF440100207401002098
:1012C000F8B5E0B1054619B30C46FEF7E3FF1A4B3B
:1012D00018686968421A2368B3F1FF3F28D02F6865
:1012E000164E3668B74201D0884223D29A4218D3AC
:1012F000002323600124FEF7EFFF2046F8BD4FF0E6
:10130000500383F31188BFF36F8FBFF34F8FFEE756
:101310004FF0500383F31188BFF36F8FBFF34F8FEC
:10132000FEE79B1A23602846FFF7BEFF0024E2E792
:101330000024E0E70124DEE77401002044010020DE
:101340000122014B1A60704778010020002839D033
:1013500038B504461E4A1268904208D04FF0500338
:1013600083F31188BFF36F8FBFF34F8FFEE7426C9B
:1013700042B94FF0500383F31188BFF36F8FBFF36F
:101380004F8FFEE7013A4264C06A216C88421BD04D
:10139000E2B9251D2846FEF70FFF236CE362C3F177
:1013A0000A02A2610B4A1268934201D9094A1360EA
:1013B00003EB83039A00294607481044FEF7D6FE44
:1013C000012038BD00207047002038BD002038BD06
:1013D00030000020140100203C00002000B585B042
:1013E0000F4B02930F4B01930123009300238022A4
:1013F0000D490E48FFF7AAFC0D4B18600D4B0293E8
:101400000D4B019302230093002380220B490C48CB
:10141000FFF79CFC0B4B1860FFF7D0FCFEE700BF0A
:1014200060040020C406002038260008711500085A
:10143000E4030020C4080020C40400204026000863
:10144000C91400087C030020034B0360034B0B60AE
:1014500080231360704700BF800300207C010020C0
:1014600000B583B08DF80700094B186858B1002308
:101470001A460DF10701FFF765F9012805D0002094
:1014800003B05DF804FB0020FAE70120F8E700BF95
:10149000340A002000B583B08DF80700094B1868A6
:1014A00058B100231A460DF10701FFF703FA01288E
:1014B00005D0002003B05DF804FB0020FAE701200E
:1014C000F8E700BF340A002000B583B00023009382
:1014D0001F4B204A01210A20FFF7E6F81E4B186037
:1014E00010B100F05BF90BE04FF0500383F311886B
:1014F000BFF36F8FBFF34F8FFEE70A20FFF7A0FD0A
:101500000A221649144B1868FFF744FA0128F4D14F
:10151000124B187800F0AAF900F0A2F90128ECD1DA
:1015200000F080F90E4B187000F082F90D4B187026
:101530000D4800F083F90D4B1870142301931E23FE
:1015400000934FF4FA721146022000F02BF8D4E712
:10155000E803002028090020340A0020330A002074
:10156000310400203004002034090020320400201F
:1015700000B583B00C20FFF773FF00F069F8032378
:101580000193962300931E234FF4FA721146012013
:1015900000F008F8024B1868FFF7C6FDEAE700BF45
:1015A0003404002030B40546104C2078012804D0C3
:1015B0000120012807D030BC70470D4C2478AC4284
:1015C000F7D30020F5E70A4C25700A4C21600A4940
:1015D0000A600A4A13600A4B029A1A60094B9DF886
:1015E0000C201A700122014B1A70E4E73804002025
:1015F000490400204004002044040020500400203E
:101600004C04002048040020024A136943F00053B0
:101610001361704700100140024A136943F40053FC
:101620001361704700100140074A936943F01003AB
:101630009361064B5A6822F440025A605A6842F499
:1016400000125A60704700BF0010024000100140B5
:1016500008B53B4B1B78072B6ED8DFE803F0040A74
:1016600018242E3A445EFFF7DFFF0122344B1A7034
:1016700008BD344B1B78012B61D1FFF7CDFF00F083
:1016800081F9314B186002222D4B1A7008BD2E4B88
:10169000186800F07DF92D4B1B6898424FD3032248
:1016A000274B1A7008BDFFF7AFFF00F06BF9264B10
:1016B00018600422224B1A7008BD234B186800F0F2
:1016C00067F9234B1B68984239D305221C4B1A70CB
:1016D00008BDFFF7A1FF00F055F91B4B186006226B
:1016E000174B1A7008BD184B186800F051F9194BC8
:1016F0001B68984223D3184A1378013BDBB213705E
:101700001BB103220E4B1A7008BD00F03BF90E4BC3
:10171000186007220A4B1A7008BD0B4B186800F0BE
:1017200037F90E4B1B68984209D30022054B1A70FB
:101730000122034B1A7008BD0022014B1A7008BD2C
:1017400039040020380400203C040020400400201C
:10175000500400204C0400204804002044040020D1
:1017600008B50B4B19681A6822F020021A60202273
:10177000084BC3F8842111F0200F00D108BD044BA1
:101780005B68DBB2044A13701078FFF783FEF5E75D
:101790000038014000E100E0380A00201F49202005
:1017A000C1F884001E4B9A6942F4804242F005025F
:1017B0009A61DA6842F48042DA60DA6822F48042A0
:1017C000DA60A3F584335A6822F0F0025A605A684E
:1017D00042F090025A605A6822F470625A605A6865
:1017E00042F480625A6003F540539A6842F4EA5228
:1017F00042F00C029A601A6822F0E8021A60DA6875
:101800000243DA60502281F82523C1F88401486040
:10181000DA6842F40052DA60704700BF00E100E08D
:1018200000100240014B1878704700BF5A04002096
:10183000014B1878704700BF59040020002304E0D2
:10184000054AD25CC2540133DBB2044A1278934297
:10185000F6D31046704700BF3C0A00205B0400200E
:10186000014B1878704700BF58040020384B1B7894
:10187000072B68D8DFE803F00411171D26353B411C
:10188000AA2803D00022334B1A7070470022314B34
:101890001A7001222E4B1A7070472F4B18700222BB
:1018A0002B4B1A7070472D4B18700322284B1A705F
:1018B00070472B4B187000222A4B1A700422244BBD
:1018C0001A707047274A13782749C8540133DBB28E
:1018D0001370234A1278934238D305221C4B1A7096
:1018E0007047224B18700622194B1A707047204B14
:1018F00018700722164B1A707047552803D0002223
:10190000134B1A707047194B1B78194A107840EA2C
:10191000032000231A46124909788B4206D2124945
:10192000C95C0A4492B20133DBB2F4E7824203D0CD
:101930000022074B1A7070470122064B1A700022D2
:10194000034B1A7070470022014B1A70704700BF9A
:1019500057040020580400205A0400205904002095
:101960005B040020560400203C0A002054040020A0
:1019700055040020024A136801331360704700BF0A
:101980005C040020014B1868704700BF5C04002015
:10199000044B1B68834202D2181A01387047181A88
:1019A000704700BF5C04002008B5074A136843F085
:1019B00010031360032000F01BF8002000F050FD1E
:1019C00000F02CFD002008BD00200240034A1168F1
:1019D000034B1B780B441360704700BF3C0B002087
:1019E00004000020014B1868704700BF3C0B00202A
:1019F000074AD36823F4E0631B041B0C000200F4C5
:101A0000E060184340F0BF6040F40030D0607047A1
:101A100000ED00E030B4164BDB68C3F30223C3F1E2
:101A20000704042C28BF04241D1D062D17D9033BD1
:101A3000012505FA04F4013C2140994005FA03F31D
:101A4000013B1340194300280BDB0901C9B200F127
:101A5000604000F5614080F8001330BC70470023FF
:101A6000E6E700F00F000901C9B2024B1954F4E790
:101A700000ED00E014ED00E0420900F01F0001233A
:101A800003FA00F0014B43F82200704700E100E048
:101A900082B0084B1B68084AA2FB03235B0A00FBC9
:101AA00003F0019000BF019B5A1E0192002BF9D157
:101AB00002B0704708000020D34D621070B582B0AC
:101AC0000446036813F0010F3DD0AC4B5B6803F094
:101AD0000C03042B2ED0A94B5B6803F00C03082BDE
:101AE00023D06368B3F5803F51D0002B55D103F16B
:101AF000804303F504331A6822F480321A601A68AE
:101B000022F480221A606368002B60D0FFF76AFF1E
:101B100005469A4B1B6813F4003F14D1FFF762FF90
:101B2000401B6428F5D90320AFE1944B5B6813F4A4
:101B3000803FD6D0914B1B6813F4003F03D06368FD
:101B4000002B00F09F81236813F0020F65D08B4BB0
:101B50005B6813F00C0F4ED0884B5B6803F00C03EE
:101B6000082B43D02369002B79D00122844B1A60C3
:101B7000FFF738FF0546814B1B6813F0020F65D154
:101B8000FFF730FF401B0228F5D903207DE17B4A97
:101B9000136843F480331360B5E7B3F5A02F09D081
:101BA000764B1A6822F480321A601A6822F4802276
:101BB0001A60A8E703F18043A3F53C331A6842F4A6
:101BC00080221A601A6842F480321A609BE7FFF79D
:101BD00009FF0546694B1B6813F4003FB3D0FFF7BC
:101BE00001FF401B6428F5D903204EE1634B5B687D
:101BF00013F4803FB6D1614B1B6813F0020F04D081
:101C00002369012B01D001203FE15C4A136823F0D6
:101C1000F803616943EAC1031360236813F0080FF6
:101C200032D0A369002B6ED00122564B1A60FFF709
:101C3000D9FE0546514B5B6A13F0020F21D1FFF725
:101C4000D1FE401B0228F5D903201EE14B4A136840
:101C500023F0F803616943EAC1031360DDE7002262
:101C6000474B1A60FFF7BEFE0546444B1B6813F056
:101C7000020FD2D0FFF7B6FE401B0228F5D9032091
:101C800003E10120FFF704FF236813F0040F00F0C5
:101C900099803A4BDB6913F0805F46D1374BDA69A4
:101CA00042F08052DA61DB6903F080530193019BBB
:101CB0000125354B1B6813F4807F38D0E368012B76
:101CC00049D0002B4DD103F1804303F504331A6A48
:101CD00022F001021A621A6A22F004021A62E36810
:101CE000002B5DD0FFF77EFE0646244B1B6A13F0E7
:101CF000020F66D1FFF776FE801B41F288339842CF
:101D0000F3D90320C1E000221E4B1A60FFF76AFEE0
:101D100005461A4B5B6A13F0020FB5D0FFF762FE5F
:101D2000401B0228F5D90320AFE00025C1E7164A81
:101D3000136843F480731360FFF754FE0646124B9A
:101D40001B6813F4807FB9D1FFF74CFE801B642819
:101D5000F5D9032099E0094A136A43F0010313629D
:101D6000BDE7052B12D0054B1A6A22F001021A6258
:101D70001A6A22F004021A62B1E700BF00100240A2
:101D8000000042428004424200700040414B1A6A07
:101D900042F004021A621A6A42F001021A629EE7D5
:101DA000FFF720FE06463B4B1B6A13F0020F08D0DC
:101DB000FFF718FE801B41F288339842F3D90320C5
:101DC00063E0E5B9E369002B5ED0324A526802F065
:101DD0000C02082A5BD0022B17D000222E4B1A606F
:101DE000FFF700FE04462B4B1B6813F0007F47D023
:101DF000FFF7F8FD001B0228F5D9032045E0254A2E
:101E0000D36923F08053D361DCE70022224B1A60B0
:101E1000FFF7E8FD05461F4B1B6813F0007F06D057
:101E2000FFF7E0FD401B0228F5D903202DE0236ACF
:101E3000B3F5803F1AD017494B6823F47413226A14
:101E4000606A024313434B600122134B1A60FFF791
:101E5000C9FD04460F4B1B6813F0007F0ED1FFF73E
:101E6000C1FD001B0228F5D903200EE0094A536882
:101E700023F40033A1680B435360DCE7002004E047
:101E8000002002E0012000E0002002B070BD01202F
:101E9000FBE700BF001002406000424210B586B070
:101EA000154C94E80F000DF1180E0EE90F00238A6F
:101EB000ADF80430114B5B6803F00C02082A18D10E
:101EC000C3F38342724412F8102C13F4803F03D101
:101ED0000B4800FB02F00DE0084B5B68C3F3404386
:101EE000734413F8143C074800FB02F0B0FBF3F016
:101EF00000E0044806B010BD1C2600080010024097
:101F000000093D0000127A00624B1B6803F00703D2
:101F10008B420CD25F4A136823F007030B43136014
:101F2000136803F00703994201D00120704770B590
:101F3000036813F0020F17D013F0040F04D0564AB1
:101F4000536843F4E0635360036813F0080F04D050
:101F5000514A536843F4605353604F4A536823F027
:101F6000F0038468234353600D460446036813F06E
:101F7000010F52D04368012B23D0022B28D0464AB0
:101F8000126812F0020F00F0828043494A6822F082
:101F9000030213434B60FFF725FD06466368012BE0
:101FA0001DD0022B2AD03C4B5B6813F00C0F34D0B1
:101FB000FFF718FD801B41F288339842F3D90320C4
:101FC00070BD354A126812F4003FDED1012070BDA9
:101FD000314A126812F0007FD7D1012070BD2E4B1C
:101FE0005B6803F00C03042B17D0FFF7FBFC801B8E
:101FF00041F288339842F2D9032070BD264B5B68CA
:1020000003F00C03082B08D0FFF7ECFC801B41F217
:1020100088339842F2D9032070BD1E4B1B6803F031
:1020200007039D420CD21B4A136823F007032B437E
:102030001360136803F007039D4201D0012070BDB7
:10204000236813F0040F06D0134A536823F4E063A7
:10205000E1680B435360236813F0080F07D00E4A62
:10206000536823F46053216943EAC1035360FFF7C7
:1020700015FF094B5B68C3F30313084AD35CD840D0
:10208000074B1860002000F0EBF9002070BD012024
:1020900070BD00BF0020024000100240542600081E
:1020A00008000020014B1868704700BF080000209E
:1020B00008B5FFF7F7FF044B5B68C3F30223034A3D
:1020C000D35CD84008BD00BF001002406426000861
:1020D0000F2303600B4B5A6802F0030242605A68F8
:1020E00002F0F00282605A6802F4E062C2605B684B
:1020F000DB0803F4E0630361034B1B6803F0070391
:102100000B607047001002400020024070470268D8
:10211000D36843F00103D3600268136843F00103FE
:10212000136000207047704770477047704710B5C4
:10213000044603681A6912F0020F11D0DA6812F02F
:10214000020F0DD06FF002021A61012303770368BA
:102150009B6913F0030F70D0FFF7E6FF002323778E
:1021600023681A6912F0040F12D0DA6812F0040F13
:102170000ED06FF004021A610223237723689B6953
:1021800013F4407F5FD02046FFF7CEFF0023237774
:1021900023681A6912F0080F12D0DA6812F0080FDB
:1021A0000ED06FF008021A61042323772368DB69DD
:1021B00013F0030F4ED02046FFF7B6FF002323771E
:1021C00023681A6912F0100F12D0DA6812F0100F9B
:1021D0000ED06FF010021A61082323772368DB69A1
:1021E00013F4407F3DD02046FFF79EFF0023237766
:1021F00023681A6912F0010F03D0DA6812F0010F98
:1022000036D123681A6912F0800F03D0DA6812F011
:10221000800F34D123681A6912F0400F03D0DA68B6
:1022200012F0400F32D123681A6912F0200F03D048
:10223000DA6812F0200F30D110BDFFF774FF20468E
:10224000FFF773FF8AE72046FFF76DFF2046FFF791
:102250006CFF9BE72046FFF766FF2046FFF765FF10
:10226000ACE72046FFF75FFF2046FFF75EFFBDE7C4
:102270006FF001021A61204600F0C4F8C1E76FF068
:1022800080021A61204600F065F8C3E76FF0400253
:102290001A612046FFF74AFFC5E76FF020021A6176
:1022A000204600F056F8C7E703681C4A904227D042
:1022B000B0F1804F24D0A2F59432904220D002F5A4
:1022C000806290421CD0154A90421ED0B0F1804FDF
:1022D0001BD0A2F59432904217D002F58062904252
:1022E00013D023F080034A69134303608B68C362F1
:1022F0000B688362094B98420CD0012343617047FD
:1023000023F070034A681343DDE723F44073CA687F
:102310001343E6E70B690363EFE700BF002C0140BE
:10232000A8B110B5044690F83D305BB1022384F8A3
:102330003D30211D2068FFF7B7FF012384F83D30B1
:10234000002010BD80F83C30FFF7E0FEEEE70120F2
:10235000704770477047000084B00F4B9A6942F095
:1023600010029A619A6902F010020192019A9A6928
:1023700042F020029A619A6902F020020292029AC7
:102380009A6942F004029A619B6903F00403039383
:10239000039B04B0704700BF0010024030B591B0FD
:1023A0002822002106A800F024F9002401940294B8
:1023B000039404940594012206924FF4803307930A
:1023C0000A9202250D950E934FF4E0130F9306A881
:1023D000FFF774FB0F230193029503944FF480637E
:1023E00004930594294601A8FFF78EFD11B030BD76
:1023F00008B5FFF7D9FAFFF7D1FFFFF7ADFFFEF7FA
:10240000EDFFFEE708B50268034B9A4200D008BD15
:10241000FFF7DCFAFBE700BF0008004082B00E4B7C
:102420009A6942F001029A619A6902F001020092EF
:10243000009ADA6942F08052DA61DB6903F0805376
:102440000193019B054A536823F0E06343F0007356
:10245000536002B0704700BF00100240000001400E
:1024600000B589B0002201461E20FFF7D3FA1E20D6
:10247000FFF702FB154BDA6942F00402DA61DB690F
:1024800003F004030193019B02A903A8FFF720FEB8
:10249000FFF70EFE43000E48A0FB03239B0C013BFD
:1024A0000C480D4A026040F2E732C26043600023EC
:1024B00003618360FFF734FF18B1012009B05DF8B4
:1024C00004FB0448FFF723FEF8E700BF00100240BA
:1024D00083DE1B43400B0020000800407047FEE7EE
:1024E000FEE7FEE7FEE7704708B5FFF743FA02484C
:1024F000FFF71DFE08BD00BF400B00200F4B1A6800
:1025000042F001021A6059680D4A0A405A601A687E
:1025100022F0847222F480321A601A6822F4802237
:102520001A605A6822F4FE025A604FF41F029A6041
:102530004FF00062034B9A60704700BF00100240EA
:102540000000FFF800ED00E0002103E00B4B5B58BA
:10255000435004310A480B4B42189A42F6D30A4AB8
:1025600002E0002342F8043B084B9A42F9D3FFF7FC
:10257000C5FF00F00FF8FFF73BFF70477426000817
:10258000000000200C0000200C000020800B002028
:10259000FEE7000070B500250C4E0D4CA41BA410E6
:1025A000A54209D100F02EF800250A4E0A4CA41BC2
:1025B000A410A54205D170BD56F8253098470135C5
:1025C000EEE756F8253098470135F2E76C2600080B
:1025D0006C2600086C2600087026000810B5431E03
:1025E0000A44914200D110BD11F8014B03F8014F8C
:1025F000F7E703460244934200D1704703F8011BFA
:10260000F9E70000F8B500BFF8BC08BC9E4670476B
:0C261000F8B500BFF8BC08BC9E4670473F
:10261C0002030405060708090A0B0C0D0E0F101017
:10262C000102000049444C45000000005441534B4A
:10263C00310000004465636F6469666963617469A5
:10264C006F6E5461736B000000000000000000000E
:10265C00010203040607080900000000010203043C
:04266C00350100082C
:04267000110100084C
:0C267400AAAAAAAA0100000000A24A04C1
:040000050800254981
:00000001FF
