:020000040800F2
:10000000005000209D18000831180008331800081F
:1000100035180008371800083918000800000000DB
:100020000000000000000000000000003102000895
:100030003B18000800000000D1020008150300086A
:10004000E5180008E5180008E5180008E51800089C
:10005000E5180008E5180008E5180008E51800088C
:10006000E5180008E5180008E5180008E51800087C
:10007000E5180008E5180008E5180008E51800086C
:10008000E5180008E5180008E5180008E51800085C
:10009000E5180008E5180008E5180008E51800084C
:1000A000E5180008E5180008E5180008E51800083C
:1000B000E5180008E51800083D180008E5180008D4
:1000C000E5180008E5180008E5180008E51800081C
:1000D000E5180008E5180008E5180008E51800080C
:1000E000E5180008E5180008E51800080000000001
:1000F0000000000000000000000000000000000000
:0C01000000000000000000005FF808F1A3
:1001100010B5054C237833B9044B13B10448AFF341
:1001200000800123237010BD0C000020000000009F
:100130004019000808B5034B1BB103490348AFF34E
:10014000008008BD000000001000002040190008D9
:1001500000F1080343604FF0FF328260C360036127
:1001600000230360704700230361704743684B60BE
:100170009A688A609A6851609960086103680133DF
:1001800003607047036942688168916082684168D2
:1001900051605A68904206D0002202611A68013A02
:1001A0001A601868704782685A60F5E782B00023C9
:1001B00001930D4B1B68B3F1FF3F08D04FF0500384
:1001C00083F31188BFF36F8FBFF34F8FFEE74FF0BC
:1001D000500383F31188BFF36F8FBFF34F8F019BE1
:1001E000002BFCD002B070470000002006480068D9
:1001F000006880F3088862B661B6BFF34F8FBFF323
:100200006F8F00DF00BF000008ED00E04FF080734B
:1002100040F8043C21F0010140F8081C034B40F871
:100220000C3C40F8202C4038704700BFAD0100085E
:10023000074B19680868B0E8F00F80F30988BFF32E
:100240006F8F4FF0000080F311884EF00D0E704755
:10025000300000204FF0500383F31188BFF36F8FFD
:10026000BFF34F8F0A4A136801331360012B0DD17E
:10027000084B1B6813F0FF0F08D04FF0500383F3B7
:100280001188BFF36F8FBFF34F8FFEE7704700BF3A
:100290000000002004ED00E0094B1B6843B94FF05B
:1002A000500383F31188BFF36F8FBFF34F8FFEE7C7
:1002B000013B034A13600BB983F31188704700BFF9
:1002C000000000200000000000000000000000000E
:1002D000EFF30980BFF36F8F0D4B1A6820E9F00F21
:1002E00010602DE908404FF0500080F3118800F0B5
:1002F0008BFA4FF0000080F31188BDE808401968C0
:100300000868B0E8F00F80F30988BFF36F8F70477B
:100310003000002008B54FF0500383F31188BFF37D
:100320006F8FBFF34F8F00F0EFF918B14FF080528D
:10033000024B1A60002383F3118808BD04ED00E02E
:10034000084A0023136008490B60084B1B680849E2
:10035000A1FB03139B09013B06490B6007231360B4
:10036000704700BF10E000E018E000E00800002047
:10037000D34D621014E000E010B582B0274B1A781C
:10038000D2B20192FF221A701B78DBB28DF80330D3
:100390009DF8033003F05003214A13700722214BCC
:1003A0001A6009E01F4A1368013B13609DF803308F
:1003B0005B00DBB28DF803309DF8033013F0800F43
:1003C000F0D1184B1B68032B08D04FF0500383F378
:1003D0001188BFF36F8FBFF34F8FFEE71B0203F44B
:1003E000E063104A1360019BDBB20C4A13700E4BA2
:1003F0001A6842F470021A601A6842F070421A6079
:10040000FFF79EFF0024094B1C60FFF7EFFE00F092
:10041000FBF9FFF7CBFE204602B010BD00E400E080
:10042000280000202C00002020ED00E0000000202B
:10043000064B1B68012BFBD94FF08052044B1A600E
:10044000BFF34F8FBFF36F8FF2E700BF3C00002078
:1004500004ED00E0084B1B681B6823B94FF0FF3226
:10046000064B1A607047044B1B68DB68DB685A68F0
:10047000024B1A60704700BF34000020400100208A
:100480002DE9F04781469A46089EDDF824800A9CB3
:10049000276B02F18042013A07EB820727F007073A
:1004A000002936D1002384F834300BE0D05CE11809
:1004B00081F83400D15C11B10133092BF6D9002346
:1004C00084F83D30092E00D90926E662266400250D
:1004D0006564201DFFF747FE04F11800FFF743FE97
:1004E0002461C6F10A06A66164622B46042B13D967
:1004F0000023E36584F86030524649463846FFF7EA
:1005000085FE2060B8F1000F01D0C8F80040BDE8BA
:10051000F0870A460023D0E703F11202002144F8D5
:1005200022100133E2E7000038B50024092C0FD96E
:100530000B4D2846FFF70CFE0A4C2046FFF708FE3D
:100540000948FFF705FE094B1D60094B1C6038BDCB
:100550001420084B00FB0430FFF7FAFD0134E5E7F7
:10056000180100202C010020480100203400002048
:10057000380000203C00002010B50446FFF76AFE5A
:10058000204A1368013313601F4B1B68002B2CD1CA
:100590001D4B1C601368012B01D1FFF7C5FF1B4ADF
:1005A000136801331360E36A194A1268934201D950
:1005B000174A1360211D1420164A00FB0320FFF781
:1005C000D5FDFFF769FE144B1B686BB10E4B1B6822
:1005D000DA6AE36A9A4207D24FF080520F4B1A60F0
:1005E000BFF34F8FBFF36F8F10BD0B4B1B68002BFA
:1005F000D5D1054B1B68DA6AE36A9A42CFD8024B21
:100600001C60CCE704010020300000201001002015
:10061000140100203C0000205C01002004ED00E0FB
:1006200070B586B00B9D0C9C75B1B4B16426049670
:10063000049E642E1AD04FF0500383F31188BFF349
:100640006F8FBFF34F8FFEE74FF0500383F3118896
:10065000BFF36F8FBFF34F8FFEE74FF0500383F36D
:100660001188BFF36F8FBFF34F8FFEE7049E2563A2
:1006700000250395029405AD01950A9D0095FFF7AD
:10068000FFFE2046FFF778FF059806B070BD00001A
:1006900010B588B000240594069407AA06A905A8F9
:1006A00000F034F9059B0293069B019300942346C6
:1006B000079A10491048FFF7B3FF18B101231BB97F
:1006C00008B010BD0023FAE74FF0500383F3118800
:1006D000BFF36F8FBFF34F8F4FF0FF32074B1A609E
:1006E0000122074B1A600022064B1A60FFF744FEF6
:1006F000E6E700BF6C190008310400084001002043
:100700005C01002060010020F8B5344B1B68002B11
:1007100059D1334B1C6801341C60C4B9314B1B6880
:100720001B6843B14FF0500383F31188BFF36F8F01
:10073000BFF34F8FFEE72B4A11682B4B18681060F0
:1007400019602A4A136801331360FFF783FE284BB0
:100750001B689C422DD200263AE00126214B1B68E3
:100760001B6843B31F4B1B68DB68DD686B689C42EA
:1007700026D32F1D3846FFF705FDAB6A1BB105F1E7
:100780001800FFF7FFFCEB6A1A4A1268934201D97E
:10079000184A136003EB83039A0039461648104445
:1007A000FFF7E4FCEA6A154B1B68DB6A9A42D4D275
:1007B000D4E70026D2E74FF0FF320D4B1A6007E076
:1007C0000B4A136004E00E4A1368013313600026DD
:1007D0000C4B1B6803B101263046F8BD0C0100200C
:1007E0006001002034000020380000204401002077
:1007F00040010020140100203C00002030000020B7
:100800000801002064010020204B1B686BB9002206
:100810001F4B1A601F4B1B6803EB83018A001E49A4
:100820008A587AB92BB1013BF6E70122184B1A60BE
:1008300070474FF0500383F31188BFF36F8FBFF3FE
:100840004F8FFEE710B408469A00D418A100014467
:100850004C6864684C601A44910008310844844232
:100860000CD003EB830291000B4A0A445268D16812
:100870000A4A1160074A136010BC7047606803EBB6
:1008800083029100044A0A445060EAE70C01002008
:1008900064010020140100203C00002030000020F2
:1008A00000B585B00F4B02930F4B019301230093CA
:1008B000002380220D490E48FFF7B2FE0D4B186051
:1008C0000D4B02930D4B01930223009300238022D2
:1008D0000B490C48FFF7A4FE0B4B1860FFF7D8FE3E
:1008E000FEE700BF00040020C806002074190008BD
:1008F00025090008CC0300206406002064040020C1
:100900007C19000845090008D0030020034B036050
:10091000034B0B6080231360704700BF6803002007
:100920006801002000B583B000F09EF80323019316
:10093000962300931E234FF4FA721146012000F013
:100940003DF8F1E710B582B0164B1B78DBB2012BF6
:10095000FAD10024134B1C7001E00134E4B20A2CDC
:10096000F2D8114B185D00F02BF900F023F90128A3
:10097000F3D100F001F90D4B187000F003F90C4BA6
:1009800018700C4800F004F90B4B187014230193F5
:100990001E2300934FF4FA721146022000F00EF865
:1009A000DBE700BF0400002084190008D503002005
:1009B000D4030020C8080020D603002030B4054628
:1009C000104C2078012804D00120012807D030BC29
:1009D00070470D4C2478AC42F7D30020F5E70A4C61
:1009E00025700A4C21600A490A600A4A13600A4BC2
:1009F000029A1A60094B9DF80C201A700122014BD3
:100A00001A70E4E7D7030020E9030020E003002088
:100A1000E4030020F0030020EC030020E8030020A2
:100A2000024A136943F000531361704700100140FC
:100A3000024A136943F400531361704700100140E8
:100A4000074A936943F010039361064B5A6822F4F6
:100A500040025A605A6842F400125A60704700BF60
:100A6000001002400010014008B53B4B1B78072BDB
:100A70006ED8DFE803F0040A18242E3A445EFFF72C
:100A8000DFFF0122344B1A7008BD344B1B78012B59
:100A900061D1FFF7CDFF00F01FF9314B1860022242
:100AA0002D4B1A7008BD2E4B186800F01BF92D4B0A
:100AB0001B6898424FD30322274B1A7008BDFFF7DB
:100AC000AFFF00F009F9264B18600422224B1A7080
:100AD00008BD234B186800F005F9234B1B689842AA
:100AE00039D305221C4B1A7008BDFFF7A1FF00F097
:100AF000F3F81B4B18600622174B1A7008BD184BF1
:100B0000186800F0EFF8194B1B68984223D3184A75
:100B10001378013BDBB213701BB103220E4B1A702A
:100B200008BD00F0D9F80E4B186007220A4B1A7066
:100B300008BD0B4B186800F0D5F80E4B1B689842A7
:100B400009D30022054B1A700122034B1A7008BD0D
:100B50000022014B1A7008BDD8030020D7030020E3
:100B6000DC030020E0030020F0030020EC03002061
:100B7000E8030020E4030020014B1878704700BF11
:100B8000FA030020014B1878704700BFF9030020DA
:100B9000002304E0054AD25CC2540133DBB2044AAC
:100BA00012789342F6D31046704700BFC809002060
:100BB000FB030020014B1878704700BFF8030020AA
:100BC000384B1B78072B68D8DFE803F00411171D9A
:100BD00026353B41AA2803D00022334B1A707047B8
:100BE0000022314B1A7001222E4B1A7070472F4B86
:100BF000187002222B4B1A7070472D4B187003226D
:100C0000284B1A7070472B4B187000222A4B1A7011
:100C10000422244B1A707047274A13782749C85476
:100C20000133DBB21370234A1278934238D3052282
:100C30001C4B1A707047224B18700622194B1A7001
:100C40007047204B18700722164B1A7070475528B2
:100C500003D00022134B1A707047194B1B78194AA6
:100C6000107840EA032000231A46124909788B4283
:100C700006D21249C95C0A4492B20133DBB2F4E7EE
:100C8000824203D00022074B1A7070470122064BA4
:100C90001A700022034B1A7070470022014B1A7021
:100CA000704700BFF7030020F8030020FA0300207C
:100CB000F9030020FB030020F6030020C8090020F0
:100CC000F4030020F5030020024A13680133136087
:100CD000704700BFFC030020014B1868704700BF3D
:100CE000FC030020044B1B68834202D2181A01380F
:100CF0007047181A704700BFFC03002008B5074A68
:100D0000136843F010031360032000F01BF8002069
:100D100000F050FD00F02CFD002008BD0020024036
:100D2000034A1168034B1B780B441360704700BFE4
:100D3000C80A002005000020014B1868704700BF5A
:100D4000C80A0020074AD36823F4E0631B041B0C85
:100D5000000200F4E060184340F0BF6040F400304F
:100D6000D060704700ED00E030B4164BDB68C3F391
:100D70000223C3F10704042C28BF04241D1D062DE3
:100D800017D9033B012505FA04F4013C21409940A1
:100D900005FA03F3013B1340194300280BDB09015B
:100DA000C9B200F1604000F5614080F8001330BC2A
:100DB00070470023E6E700F00F000901C9B2024BBB
:100DC0001954F4E700ED00E014ED00E0420900F0F2
:100DD0001F00012303FA00F0014B43F82200704783
:100DE00000E100E082B0084B1B68084AA2FB032325
:100DF0005B0A00FB03F0019000BF019B5A1E0192A9
:100E0000002BF9D102B0704708000020D34D6210CA
:100E100070B582B00446036813F0010F3DD0AC4BAF
:100E20005B6803F00C03042B2ED0A94B5B6803F026
:100E30000C03082B23D06368B3F5803F51D0002BFF
:100E400055D103F1804303F504331A6822F480324C
:100E50001A601A6822F480221A606368002B60D03E
:100E6000FFF76AFF05469A4B1B6813F4003F14D145
:100E7000FFF762FF401B6428F5D90320AFE1944BD4
:100E80005B6813F4803FD6D0914B1B6813F4003F8E
:100E900003D06368002B00F09F81236813F0020FDA
:100EA00065D08B4B5B6813F00C0F4ED0884B5B68A2
:100EB00003F00C03082B43D02369002B79D00122C7
:100EC000844B1A60FFF738FF0546814B1B6813F00F
:100ED000020F65D1FFF730FF401B0228F5D9032030
:100EE0007DE17B4A136843F480331360B5E7B3F5C3
:100EF000A02F09D0764B1A6822F480321A601A6843
:100F000022F480221A60A8E703F18043A3F53C3362
:100F10001A6842F480221A601A6842F480321A6019
:100F20009BE7FFF709FF0546694B1B6813F4003F79
:100F3000B3D0FFF701FF401B6428F5D903204EE131
:100F4000634B5B6813F4803FB6D1614B1B6813F0B1
:100F5000020F04D02369012B01D001203FE15C4A3C
:100F6000136823F0F803616943EAC103136023683F
:100F700013F0080F32D0A369002B6ED00122564B1C
:100F80001A60FFF7D9FE0546514B5B6A13F0020F5A
:100F900021D1FFF7D1FE401B0228F5D903201EE125
:100FA0004B4A136823F0F803616943EAC1031360F5
:100FB000DDE70022474B1A60FFF7BEFE0546444BB3
:100FC0001B6813F0020FD2D0FFF7B6FE401B0228B9
:100FD000F5D9032003E10120FFF704FF236813F094
:100FE000040F00F099803A4BDB6913F0805F46D123
:100FF000374BDA6942F08052DA61DB6903F08053E3
:101000000193019B0125354B1B6813F4807F38D079
:10101000E368012B49D0002B4DD103F1804303F548
:1010200004331A6A22F001021A621A6A22F00402D8
:101030001A62E368002B5DD0FFF77EFE0646244B64
:101040001B6A13F0020F66D1FFF776FE801B41F298
:1010500088339842F3D90320C1E000221E4B1A6066
:10106000FFF76AFE05461A4B5B6A13F0020FB5D014
:10107000FFF762FE401B0228F5D90320AFE00025F0
:10108000C1E7164A136843F480731360FFF754FEF8
:101090000646124B1B6813F4807FB9D1FFF74CFE54
:1010A000801B6428F5D9032099E0094A136A43F0AC
:1010B00001031362BDE7052B12D0054B1A6A22F01B
:1010C00001021A621A6A22F004021A62B1E700BF32
:1010D0000010024000004242800442420070004082
:1010E000414B1A6A42F004021A621A6A42F0010283
:1010F0001A629EE7FFF720FE06463B4B1B6A13F081
:10110000020F08D0FFF718FE801B41F28833984287
:10111000F3D9032063E0E5B9E369002B5ED0324ADE
:10112000526802F00C02082A5BD0022B17D0002272
:101130002E4B1A60FFF700FE04462B4B1B6813F082
:10114000007F47D0FFF7F8FD001B0228F5D90320E8
:1011500045E0254AD36923F08053D361DCE70022C0
:10116000224B1A60FFF7E8FD05461F4B1B6813F082
:10117000007F06D0FFF7E0FD401B0228F5D90320D1
:101180002DE0236AB3F5803F1AD017494B6823F44A
:101190007413226A606A024313434B600122134BAB
:1011A0001A60FFF7C9FD04460F4B1B6813F0007F60
:1011B0000ED1FFF7C1FD001B0228F5D903200EE078
:1011C000094A536823F40033A1680B435360DCE7FA
:1011D000002004E0002002E0012000E0002002B036
:1011E00070BD0120FBE700BF0010024060004242DA
:1011F00010B586B0154C94E80F000DF1180E0EE9ED
:101200000F00238AADF80430114B5B6803F00C0229
:10121000082A18D1C3F38342724412F8102C13F435
:10122000803F03D10B4800FB02F00DE0084B5B68E8
:10123000C3F34043734413F8143C074800FB02F027
:10124000B0FBF3F000E0044806B010BD58190008E8
:101250000010024000093D0000127A00624B1B683A
:1012600003F007038B420CD25F4A136823F0070395
:101270000B431360136803F00703994201D0012068
:10128000704770B5036813F0020F17D013F0040F06
:1012900004D0564A536843F4E0635360036813F084
:1012A000080F04D0514A536843F4605353604F4AC7
:1012B000536823F0F0038468234353600D460446CB
:1012C000036813F0010F52D04368012B23D0022B87
:1012D00028D0464A126812F0020F00F0828043497B
:1012E0004A6822F0030213434B60FFF725FD0646D0
:1012F0006368012B1DD0022B2AD03C4B5B6813F096
:101300000C0F34D0FFF718FD801B41F28833984250
:10131000F3D9032070BD354A126812F4003FDED1C4
:10132000012070BD314A126812F0007FD7D1012030
:1013300070BD2E4B5B6803F00C03042B17D0FFF736
:10134000FBFC801B41F288339842F2D9032070BD28
:10135000264B5B6803F00C03082B08D0FFF7ECFC6E
:10136000801B41F288339842F2D9032070BD1E4B96
:101370001B6803F007039D420CD21B4A136823F03D
:1013800007032B431360136803F007039D4201D04A
:10139000012070BD236813F0040F06D0134A536870
:1013A00023F4E063E1680B435360236813F0080FF4
:1013B00007D00E4A536823F46053216943EAC103FE
:1013C0005360FFF715FF094B5B68C3F30313084A2B
:1013D000D35CD840074B1860002000F0EBF90020E8
:1013E00070BD012070BD00BF00200240001002400F
:1013F0009019000808000020014B1868704700BFD2
:101400000800002008B5FFF7F7FF044B5B68C3F343
:101410000223034AD35CD84008BD00BF001002403D
:10142000A01900080F2303600B4B5A6802F0030257
:1014300042605A6802F0F00282605A6802F4E06288
:10144000C2605B68DB0803F4E0630361034B1B6865
:1014500003F007030B6070470010024000200240B9
:1014600070470268D36843F00103D36002681368D1
:1014700043F00103136000207047704770477047C6
:10148000704710B5044603681A6912F0020F11D0B4
:10149000DA6812F0020F0DD06FF002021A61012318
:1014A000037703689B6913F0030F70D0FFF7E6FF23
:1014B0000023237723681A6912F0040F12D0DA6828
:1014C00012F0040F0ED06FF004021A61022323778A
:1014D00023689B6913F4407F5FD02046FFF7CEFF5F
:1014E0000023237723681A6912F0080F12D0DA68F4
:1014F00012F0080F0ED06FF008021A610423237750
:101500002368DB6913F0030F4ED02046FFF7B6FFC8
:101510000023237723681A6912F0100F12D0DA68BB
:1015200012F0100F0ED06FF010021A61082323770B
:101530002368DB6913F4407F3DD02046FFF79EFF10
:101540000023237723681A6912F0010F03D0DA68A9
:1015500012F0010F36D123681A6912F0800F03D000
:10156000DA6812F0800F34D123681A6912F0400F44
:1015700003D0DA6812F0400F32D123681A6912F0F2
:10158000200F03D0DA6812F0200F30D110BDFFF722
:1015900074FF2046FFF773FF8AE72046FFF76DFFD1
:1015A0002046FFF76CFF9BE72046FFF766FF2046CB
:1015B000FFF765FFACE72046FFF75FFF2046FFF728
:1015C0005EFFBDE76FF001021A61204600F0C4F82B
:1015D000C1E76FF080021A61204600F065F8C3E7AA
:1015E0006FF040021A612046FFF74AFFC5E76FF02F
:1015F00020021A61204600F056F8C7E703681C4A2B
:10160000904227D0B0F1804F24D0A2F5943290427E
:1016100020D002F5806290421CD0154A90421ED024
:10162000B0F1804F1BD0A2F59432904217D002F552
:101630008062904213D023F080034A691343036011
:101640008B68C3620B688362094B98420CD00123FC
:101650004361704723F070034A681343DDE723F4C6
:101660004073CA681343E6E70B690363EFE700BF03
:10167000002C0140A8B110B5044690F83D305BB194
:10168000022384F83D30211D2068FFF7B7FF0123B6
:1016900084F83D30002010BD80F83C30FFF7E0FEBC
:1016A000EEE70120704770477047000084B00F4B91
:1016B0009A6942F010029A619A6902F0100201924E
:1016C000019A9A6942F020029A619A6902F0200216
:1016D0000292029A9A6942F004029A619B6903F0AD
:1016E00004030393039B04B0704700BF0010024043
:1016F00030B591B02822002106A800F019F9002485
:1017000001940294039404940594012206924FF4E8
:10171000803307930A9202250D950E934FF4E01340
:101720000F9306A8FFF774FB0F2301930295039410
:101730004FF4806304930594294601A8FFF78EFDBA
:1017400011B030BD08B5FFF7D9FAFFF7D1FFFFF7A9
:10175000ADFFFFF7A5F8FEE708B50268034B9A4214
:1017600000D008BDFFF7DCFAFBE700BF000800402F
:1017700082B00E4B9A6942F001029A619A6902F0B6
:1017800001020092009ADA6942F08052DA61DB6964
:1017900003F080530193019B054A536823F0E063F3
:1017A00043F00073536002B0704700BF0010024066
:1017B0000000014000B589B0002201461E20FFF75D
:1017C000D3FA1E20FFF702FB154BDA6942F0040240
:1017D000DA61DB6903F004030193019B02A903A80A
:1017E000FFF720FEFFF70EFE43000E48A0FB032389
:1017F0009B0C013B0C480D4A026040F2E732C2608C
:101800004360002303618360FFF734FF18B10120B8
:1018100009B05DF804FB0448FFF723FEF8E700BFBA
:101820000010024083DE1B43CC0A00200008004069
:101830007047FEE7FEE7FEE7FEE7704708B5FFF7F3
:1018400043FA0248FFF71DFE08BD00BFCC0A002086
:101850000F4B1A6842F001021A6059680D4A0A409B
:101860005A601A6822F0847222F480321A601A6870
:1018700022F480221A605A6822F4FE025A604FF461
:101880001F029A604FF00062034B9A60704700BFDE
:10189000001002400000FFF800ED00E0002103E02E
:1018A0000B4B5B58435004310A480B4B42189A4289
:1018B000F6D30A4A02E0002342F8043B084B9A425E
:1018C000F9D3FFF7C5FF00F00FF8FFF73BFF7047B4
:1018D000B0190008000000200C0000200C000020BF
:1018E0000C0B0020FEE7000070B500250C4E0D4CDF
:1018F000A41BA410A54209D100F022F800250A4E2D
:101900000A4CA41BA410A54205D170BD56F8253081
:1019100098470135EEE756F8253098470135F2E74C
:10192000A8190008A8190008A8190008AC1900088F
:1019300003460244934200D1704703F8011BF9E7C4
:10194000F8B500BFF8BC08BC9E467047F8B500BFAC
:08195000F8BC08BC9E4670477C
:1019580002030405060708090A0B0C0D0E0F1010E8
:101968000102000049444C45000000005441534B1B
:10197800310000005441534B32000000003525AAC5
:10198800010001350035550000000000000000008E
:10199800010203040607080900000000010203040D
:0419A80035010008FD
:0419AC00110100081D
:0C19B000AAAAAAAA0101000000A24A0491
:040000050800189D3A
:00000001FF
