:020000040800F2
:1000000000500020611B0008F51A0008F71A0008CC
:10001000F91A0008FB1A0008FD1A00080000000089
:100020000000000000000000000000007102000855
:10003000FF1A000800000000110300085503000823
:10004000A91B0008A91B0008A91B0008A91B000880
:10005000A91B0008A91B0008A91B0008A91B000870
:10006000A91B0008A91B0008A91B0008A91B000860
:10007000A91B0008A91B0008A91B0008A91B000850
:10008000A91B0008A91B0008A91B0008A91B000840
:10009000A91B0008A91B0008A91B0008A91B000830
:1000A000A91B0008A91B0008A91B0008A91B000820
:1000B000A91B0008A91B0008011B0008A91B0008B8
:1000C000A91B0008A91B0008A91B0008A91B000800
:1000D000A91B0008A91B0008A91B0008A91B0008F0
:1000E000A91B0008A91B0008A91B000800000000AC
:1000F0000000000000000000000000000000000000
:0C01000000000000000000005FF808F1A3
:1001100010B5054C237833B9044B13B10448AFF341
:1001200000800123237010BD0C000020000000009F
:10013000041C000808B5034B1BB103490348AFF387
:10014000008008BD0000000010000020041C000812
:1001500000F1080343604FF0FF328260C360036127
:1001600000230360704700230361704743684B60BE
:100170009A688A609A6851609960086103680133DF
:100180000360704730B40D68B5F1FF3F02D000F155
:10019000080202E0026904E01A4653681C68A5429E
:1001A000FAD253684B6099608A60516008610368B5
:1001B0000133036030BC7047036942688168916015
:1001C0008268416851605A68904206D000220261FC
:1001D0001A68013A1A601868704782685A60F5E731
:1001E00082B0002301930D4B1B68B3F1FF3F08D091
:1001F0004FF0500383F31188BFF36F8FBFF34F8F1E
:10020000FEE74FF0500383F31188BFF36F8FBFF306
:100210004F8F019B002BFCD002B0704700000020E4
:1002200006480068006880F3088862B661B6BFF3CC
:100230004F8FBFF36F8F00DF00BF000008ED00E0BD
:100240004FF0807340F8043C21F0010140F8081C95
:10025000034B40F80C3C40F8202C4038704700BF5E
:10026000E1010008000000000000000000000000A4
:10027000074B19680868B0E8F00F80F30988BFF3EE
:100280006F8F4FF0000080F311884EF00D0E704715
:10029000300000204FF0500383F31188BFF36F8FBD
:1002A000BFF34F8F0A4A136801331360012B0DD13E
:1002B000084B1B6813F0FF0F08D04FF0500383F377
:1002C0001188BFF36F8FBFF34F8FFEE7704700BFFA
:1002D0000000002004ED00E0094B1B6843B94FF01B
:1002E000500383F31188BFF36F8FBFF34F8FFEE787
:1002F000013B034A13600BB983F31188704700BFB9
:1003000000000020000000000000000000000000CD
:10031000EFF30980BFF36F8F0D4B1A6820E9F00FE0
:1003200010602DE908404FF0500080F3118800F074
:1003300019FC4FF0000080F31188BDE808401968EF
:100340000868B0E8F00F80F30988BFF36F8F70473B
:100350003000002008B54FF0500383F31188BFF33D
:100360006F8FBFF34F8F00F0D7FA18B14FF0805264
:10037000024B1A60002383F3118808BD04ED00E0EE
:10038000084A0023136008490B60084B1B680849A2
:10039000A1FB03139B09013B06490B600723136074
:1003A000704700BF10E000E018E000E00800002007
:1003B000D34D621014E000E010B582B0274B1A78DC
:1003C000D2B20192FF221A701B78DBB28DF8033093
:1003D0009DF8033003F05003214A13700722214B8C
:1003E0001A6009E01F4A1368013B13609DF803304F
:1003F0005B00DBB28DF803309DF8033013F0800F03
:10040000F0D1184B1B68032B08D04FF0500383F337
:100410001188BFF36F8FBFF34F8FFEE71B0203F40A
:10042000E063104A1360019BDBB20C4A13700E4B61
:100430001A6842F470021A601A6842F070421A6038
:10044000FFF79EFF0024094B1C60FFF7E9FE00F058
:1004500089FBFFF7C5FE204602B010BD00E400E0B6
:10046000280000202C00002020ED00E000000020EB
:1004700038B530B304460D46FFF70CFF2168E26B38
:10048000236C03FB0210A0600020A0636160013AAE
:1004900002FB0313E360FF2384F8443084F8453003
:1004A000C5B92369F3B104F1100000F0A7FBC8B18E
:1004B0004FF080520D4B1A60BFF34F8FBFF36F8F19
:1004C00010E04FF0500383F31188BFF36F8FBFF339
:1004D0004F8FFEE704F11000FFF73AFE04F124000D
:1004E000FFF736FEFFF7F8FE012038BD04ED00E00F
:1004F00010B5029B0C4639B91B60D8631C640121FE
:100500001846FFF7B5FF10BD1A60F6E740B94FF087
:10051000500383F31188BFF36F8FBFF34F8FFEE754
:1005200010B584B0044663B1A2B1A9B10120A8B945
:100530004FF0500383F31188BFF36F8FBFF34F8FDA
:10054000FEE74FF0500383F31188BFF36F8FBFF3C3
:100550004F8FFEE70120EAE70020E8E70AB901B182
:10056000002040B94FF0500383F31188BFF36F8F21
:10057000BFF34F8FFEE7482003900398482808D028
:100580004FF0500383F31188BFF36F8FBFF34F8F8A
:10059000FEE720461C46039B00949DF81830FFF7A9
:1005A000A7FF204604B010BD064B1B68012BFBD9EA
:1005B0004FF08052044B1A60BFF34F8FBFF36F8F21
:1005C000F2E700BF3C00002004ED00E0084B1B6890
:1005D0001B683BB1064B1B68DB68DB685A68054B40
:1005E0001A6070474FF0FF32024B1A60704700BF2D
:1005F00034000020400100202DE9F04781469A4652
:10060000089EDDF824800A9C276B02F18042013AA3
:1006100007EB820727F00707002936D1002384F86B
:1006200034300BE0D05CE11881F83400D15C11B1BA
:100630000133092BF6D9002384F83D30092E00D967
:100640000926E662266400256564201DFFF78BFD00
:1006500004F11800FFF787FD2461C6F10A06A661C0
:1006600064622B46042B13D90023E36584F86030C1
:10067000524649463846FFF7E3FD2060B8F1000FC7
:1006800001D0C8F80040BDE8F0870A460023D0E753
:1006900003F11202002144F822100133E2E70000C6
:1006A00038B50024092C12D90D4D2846FFF750FD0E
:1006B0000C4C2046FFF74CFD0B48FFF749FD0B485B
:1006C000FFF746FD0A4B1D600A4B1C6038BD142025
:1006D000094B00FB0430FFF73BFD0134E2E700BFAC
:1006E000180100202C01002048010020600100209A
:1006F00034000020380000203C00002010B50446E3
:10070000FFF7C8FD204A1368013313601F4B1B68B5
:10071000002B2CD11D4B1C601368012B01D1FFF75E
:10072000BFFF1B4A136801331360E36A194A12685A
:10073000934201D9174A1360211D1420164A00FB69
:100740000320FFF713FDFFF7C7FD144B1B686BB1C8
:100750000E4B1B68DA6AE36A9A4207D24FF0805266
:100760000F4B1A60BFF34F8FBFF36F8F10BD0B4B52
:100770001B68002BD5D1054B1B68DA6AE36A9A42E5
:10078000CFD8024B1C60CCE70401002030000020D1
:1007900010010020140100203C0000205C0100201A
:1007A00004ED00E070B504460E46174B1D68174B6C
:1007B00018680430FFF700FDB4F1FF3F13D02C445C
:1007C000124B1B685C60A54216D8114B18680F4B82
:1007D00019680431FFF7D6FC0E4B1B689C4201D20E
:1007E0000C4B1C6070BD002EE9D0084B1968043119
:1007F0000948FFF7BBFC70BD084B1868034B19682C
:100800000431FFF7BFFC70BD7401002030000020F0
:10081000340000204001002060010020380000204A
:1008200070B586B00B9D0C9C75B1B4B1642604966E
:10083000049E642E1AD04FF0500383F31188BFF347
:100840006F8FBFF34F8FFEE74FF0500383F3118894
:10085000BFF36F8FBFF34F8FFEE74FF0500383F36B
:100860001188BFF36F8FBFF34F8FFEE7049E2563A0
:1008700000250395029405AD01950A9D0095FFF7AB
:10088000BBFE2046FFF73AFF059806B070BD00009A
:1008900010B588B000240594069407AA06A905A8F7
:1008A00000F028FA059B0293069B019300942346CF
:1008B000079A10491048FFF7B3FF18B101231BB97D
:1008C00008B010BD0023FAE74FF0500383F31188FE
:1008D000BFF36F8FBFF34F8F4FF0FF32074B1A609C
:1008E0000122074B1A600022064B1A60FFF764FDD5
:1008F000E6E700BF301C0008A90500084001002001
:100900005C01002074010020024A13680133136067
:10091000704700BF0C010020F8B5344B1B68002B5A
:1009200059D1334B1C6801341C60C4B9314B1B686E
:100930001B6843B14FF0500383F31188BFF36F8FEF
:10094000BFF34F8FFEE72B4A11682B4B18681060DE
:1009500019602A4A136801331360FFF737FE284BEA
:100960001B689C422DD200263AE00126214B1B68D1
:100970001B6843B31F4B1B68DB68DD686B689C42D8
:1009800026D32F1D3846FFF717FCAB6A1BB105F1C4
:100990001800FFF711FCEB6A1A4A1268934201D95A
:1009A000184A136003EB83039A0039461648104433
:1009B000FFF7DCFBEA6A154B1B68DB6A9A42D4D26C
:1009C000D4E70026D2E74FF0FF320D4B1A6007E064
:1009D0000B4A136004E00E4A1368013313600026CB
:1009E0000C4B1B6803B101263046F8BD0C010020FA
:1009F0007401002034000020380000204401002051
:100A000040010020140100203C00002030000020A4
:100A1000080100207801002038B5354B1B6843B928
:100A20004FF0500383F31188BFF36F8FBFF34F8FE5
:100A3000FEE7FFF72FFC2E4B1A68013A1A601B687D
:100A4000002B50D12B4B1B6823B90024FFF744FC2B
:100A5000204638BD0024284B1B681BB3264BDB689F
:100A6000DC6804F11800FFF7A7FB251D2846FFF7F7
:100A7000A3FBE36A214A1268934201D91F4A13601B
:100A800003EB83039A0029461D481044FFF76EFBD1
:100A9000E26A1C4B1B68DB6A9A42DCD301221A4BC8
:100AA0001A60D8E70CB1FFF791FD184B1C6874B9B8
:100AB000154B1B68CBB14FF08052154B1A60BFF33A
:100AC0004F8FBFF36F8F0124C0E7013C07D0FFF7C2
:100AD00023FF0028F9D001220B4B1A60F5E7002212
:100AE0000A4B1A60E4E70024B0E70024AEE700BF39
:100AF0000C01002004010020480100201401002006
:100B00003C00002030000020780100200801002077
:100B100004ED00E010B5A8B10446104B1B6843B1CA
:100B20004FF0500383F31188BFF36F8FBFF34F8FE4
:100B3000FEE7FFF7E9FE00212046FFF733FEFFF74F
:100B40006BFF00E0002038B94FF08052044B1A6070
:100B5000BFF34F8FBFF36F8F10BD00BF0C0100209C
:100B600004ED00E0204B1B686BB900221F4B1A609C
:100B70001F4B1B6803EB83018A001E498A587AB910
:100B80002BB1013BF6E70122184B1A6070474FF07A
:100B9000500383F31188BFF36F8FBFF34F8FFEE7CE
:100BA00010B408469A00D418A10001444C68646847
:100BB0004C601A4491000831084484420CD003EB85
:100BC000830291000B4A0A445268D1680A4A1160B4
:100BD000074A136010BC7047606803EB8302910002
:100BE000044A0A445060EAE70C0100207801002022
:100BF000140100203C0000203000002038B5C368FC
:100C0000DC6824B304F118052846FFF7D5FA184B21
:100C10001B682BBB251D2846FFF7CEFAE36A154A51
:100C20001268934201D9134A136003EB83039A00BD
:100C3000294611481044FFF799FAE26A0F4B1B68E6
:100C4000DB6A9A4211D901200D4B186038BD4FF074
:100C5000500383F31188BFF36F8FBFF34F8FFEE70D
:100C600029460848FFF782FAE7E7002038BD00BFB1
:100C70000C010020140100203C0000203000002066
:100C8000780100204801002000B585B00F4B029389
:100C90000F4B019301230093002380220D490E483E
:100CA000FFF7BEFD0D4B18600D4B02930D4B0193EA
:100CB00002230093002380220B490C48FFF7B0FD6C
:100CC0000B4B1860FFF7E4FDFEE700BF5C0400205B
:100CD00024070020381C00083D0D0008E003002018
:100CE000C0060020C0040020401C00084D0D000874
:100CF000E4030020034B0360034B0B60802313606D
:100D0000704700BF7C0300207C010020084B187056
:100D10000022084B1A6003E0064A1368013313608F
:100D2000044B1A68044B9A42F6D9014B1878704765
:100D3000EC030020E80300203F0D030008B561200C
:100D4000FFF7E4FF6128FAD0FEE7000010B582B09B
:100D500000230093204B214A01210A20FFF7D6FBF4
:100D60001F4B186078BB4FF0500383F31188BFF31B
:100D70006F8FBFF34F8FFEE70134E4B20A2C1FD808
:100D8000184B185D00F090F800F088F80128F3D1B6
:100D900000F066F8144B187000F068F8134B1870E8
:100DA000134800F069F8134B1870142301931E23A5
:100DB00000934FF4FA721146022000F01FF8DBE7AF
:100DC0000A20FFF7A7FE0C4B1B78DBB2012BF7D1F3
:100DD0000024094B1C70D1E7F003002024090020F7
:100DE000300A0020481C0008390400203804002084
:100DF000300900203A0400200400002030B40546E9
:100E0000104C2078012804D00120012807D030BCE4
:100E100070470D4C2478AC42F7D30020F5E70A4C1C
:100E200025700A4C21600A490A600A4A13600A4B7D
:100E3000029A1A60094B9DF80C201A700122014B8E
:100E40001A70E4E73B040020450400203C04002025
:100E5000400400204C0400204804002044040020EA
:100E6000014B1878704700BF56040020014B1878DA
:100E7000704700BF55040020002304E0054AD25CFF
:100E8000C2540133DBB2044A12789342F6D31046BF
:100E9000704700BF340A002057040020014B187827
:100EA000704700BF54040020384B1B78072B68D8CC
:100EB000DFE803F00411171D26353B41AA2803D0B3
:100EC0000022334B1A7070470022314B1A700122F6
:100ED0002E4B1A7070472F4B187002222B4B1A7032
:100EE00070472D4B18700322284B1A7070472B4BFC
:100EF000187000222A4B1A700422244B1A70704773
:100F0000274A13782749C8540133DBB21370234AA8
:100F10001278934238D305221C4B1A707047224B2B
:100F200018700622194B1A707047204B1870072250
:100F3000164B1A707047552803D00022134B1A70B5
:100F40007047194B1B78194A107840EA0320002398
:100F50001A46124909788B4206D21249C95C0A44E2
:100F600092B20133DBB2F4E7824203D00022074B96
:100F70001A7070470122064B1A700022034B1A7038
:100F800070470022014B1A70704700BF53040020C5
:100F9000540400205604002055040020570400206B
:100FA00052040020340A0020500400205104002084
:100FB000024A136801331360704700BF58040020D1
:100FC00008B5074A136843F010031360032000F0CC
:100FD0001BF8002000F050FD00F02CFD002008BDA3
:100FE00000200240034A1168034B1B780B44136036
:100FF000704700BF340B002005000020014B18682B
:10100000704700BF340B0020074AD36823F4E06325
:101010001B041B0C000200F4E060184340F0BF60AA
:1010200040F40030D060704700ED00E030B4164B63
:10103000DB68C3F30223C3F10704042C28BF042494
:101040001D1D062D17D9033B012505FA04F4013CAB
:101050002140994005FA03F3013B1340194300284E
:101060000BDB0901C9B200F1604000F5614080F876
:10107000001330BC70470023E6E700F00F000901C1
:10108000C9B2024B1954F4E700ED00E014ED00E0A2
:10109000420900F01F00012303FA00F0014B43F85E
:1010A0002200704700E100E082B0084B1B68084A4C
:1010B000A2FB03235B0A00FB03F0019000BF019B2E
:1010C0005A1E0192002BF9D102B07047080000208F
:1010D000D34D621070B582B00446036813F0010F5F
:1010E0003DD0AC4B5B6803F00C03042B2ED0A94B16
:1010F0005B6803F00C03082B23D06368B3F5803FD3
:1011000051D0002B55D103F1804303F504331A6805
:1011100022F480321A601A6822F480221A6063680E
:10112000002B60D0FFF76AFF05469A4B1B6813F44B
:10113000003F14D1FFF762FF401B6428F5D903205C
:10114000AFE1944B5B6813F4803FD6D0914B1B68A2
:1011500013F4003F03D06368002B00F09F812368E5
:1011600013F0020F65D08B4B5B6813F00C0F4ED061
:10117000884B5B6803F00C03082B43D02369002BDA
:1011800079D00122844B1A60FFF738FF0546814B66
:101190001B6813F0020F65D1FFF730FF401B0228D8
:1011A000F5D903207DE17B4A136843F48033136053
:1011B000B5E7B3F5A02F09D0764B1A6822F4803238
:1011C0001A601A6822F480221A60A8E703F18043AB
:1011D000A3F53C331A6842F480221A601A6842F47C
:1011E00080321A609BE7FFF709FF0546694B1B68D1
:1011F00013F4003FB3D0FFF701FF401B6428F5D97B
:1012000003204EE1634B5B6813F4803FB6D1614B22
:101210001B6813F0020F04D02369012B01D00120B9
:101220003FE15C4A136823F0F803616943EAC103B4
:101230001360236813F0080F32D0A369002B6ED01F
:101240000122564B1A60FFF7D9FE0546514B5B6AE7
:1012500013F0020F21D1FFF7D1FE401B0228F5D970
:1012600003201EE14B4A136823F0F803616943EA47
:10127000C1031360DDE70022474B1A60FFF7BEFE93
:101280000546444B1B6813F0020FD2D0FFF7B6FEA1
:10129000401B0228F5D9032003E10120FFF704FFDA
:1012A000236813F0040F00F099803A4BDB6913F0C8
:1012B000805F46D1374BDA6942F08052DA61DB69F0
:1012C00003F080530193019B0125354B1B6813F4F8
:1012D000807F38D0E368012B49D0002B4DD103F13A
:1012E000804303F504331A6A22F001021A621A6A73
:1012F00022F004021A62E368002B5DD0FFF77EFE45
:101300000646244B1B6A13F0020F66D1FFF776FEE8
:10131000801B41F288339842F3D90320C1E00022B8
:101320001E4B1A60FFF76AFE05461A4B5B6A13F004
:10133000020FB5D0FFF762FE401B0228F5D903204B
:10134000AFE00025C1E7164A136843F480731360C9
:10135000FFF754FE0646124B1B6813F4807FB9D189
:10136000FFF74CFE801B6428F5D9032099E0094A59
:10137000136A43F001031362BDE7052B12D0054B3E
:101380001A6A22F001021A621A6A22F004021A6230
:10139000B1E700BF00100240000042428004424218
:1013A00000700040414B1A6A42F004021A621A6A45
:1013B00042F001021A629EE7FFF720FE06463B4B11
:1013C0001B6A13F0020F08D0FFF718FE801B41F2D2
:1013D00088339842F3D9032063E0E5B9E369002B31
:1013E0005ED0324A526802F00C02082A5BD0022B0F
:1013F00017D000222E4B1A60FFF700FE04462B4B3D
:101400001B6813F0007F47D0FFF7F8FD001B022890
:10141000F5D9032045E0254AD36923F08053D361F1
:10142000DCE70022224B1A60FFF7E8FD05461F4B60
:101430001B6813F0007F06D0FFF7E0FD401B022879
:10144000F5D903202DE0236AB3F5803F1AD0174960
:101450004B6823F47413226A606A024313434B609F
:101460000122134B1A60FFF7C9FD04460F4B1B689E
:1014700013F0007F0ED1FFF7C1FD001B0228F5D944
:1014800003200EE0094A536823F40033A1680B439C
:101490005360DCE7002004E0002002E0012000E0CF
:1014A000002002B070BD0120FBE700BF0010024029
:1014B0006000424210B586B0154C94E80F000DF163
:1014C000180E0EE90F00238AADF80430114B5B684B
:1014D00003F00C02082A18D1C3F38342724412F8B5
:1014E000102C13F4803F03D10B4800FB02F00DE0F9
:1014F000084B5B68C3F34043734413F8143C07483C
:1015000000FB02F0B0FBF3F000E0044806B010BDB1
:101510001C1C00080010024000093D0000127A0067
:10152000624B1B6803F007038B420CD25F4A1368BF
:1015300023F007030B431360136803F0070399427A
:1015400001D00120704770B5036813F0020F17D067
:1015500013F0040F04D0564A536843F4E063536019
:10156000036813F0080F04D0514A536843F46053E2
:1015700053604F4A536823F0F00384682343536059
:101580000D460446036813F0010F52D04368012B47
:1015900023D0022B28D0464A126812F0020F00F026
:1015A000828043494A6822F0030213434B60FFF7ED
:1015B00025FD06466368012B1DD0022B2AD03C4B2B
:1015C0005B6813F00C0F34D0FFF718FD801B41F25D
:1015D00088339842F3D9032070BD354A126812F45B
:1015E000003FDED1012070BD314A126812F0007F49
:1015F000D7D1012070BD2E4B5B6803F00C03042B88
:1016000017D0FFF7FBFC801B41F288339842F2D9D8
:10161000032070BD264B5B6803F00C03082B08D039
:10162000FFF7ECFC801B41F288339842F2D903208B
:1016300070BD1E4B1B6803F007039D420CD21B4A72
:10164000136823F007032B431360136803F00703A9
:101650009D4201D0012070BD236813F0040F06D015
:10166000134A536823F4E063E1680B435360236833
:1016700013F0080F07D00E4A536823F46053216912
:1016800043EAC1035360FFF715FF094B5B68C3F3DF
:101690000313084AD35CD840074B1860002000F0C1
:1016A000EBF9002070BD012070BD00BF002002409A
:1016B00000100240541C000808000020014B18686C
:1016C000704700BF0800002008B5FFF7F7FF044B84
:1016D0005B68C3F30223034AD35CD84008BD00BF54
:1016E00000100240641C00080F2303600B4B5A6873
:1016F00002F0030242605A6802F0F00282605A6807
:1017000002F4E062C2605B68DB0803F4E06303613B
:10171000034B1B6803F007030B6070470010024087
:101720000020024070470268D36843F00103D36091
:101730000268136843F0010313600020704770478C
:1017400070477047704710B5044603681A6912F075
:10175000020F11D0DA6812F0020F0DD06FF0020202
:101760001A610123037703689B6913F0030F70D09C
:10177000FFF7E6FF0023237723681A6912F0040FAE
:1017800012D0DA6812F0040F0ED06FF004021A6162
:101790000223237723689B6913F4407F5FD02046A0
:1017A000FFF7CEFF0023237723681A6912F0080F92
:1017B00012D0DA6812F0080F0ED06FF008021A612A
:1017C000042323772368DB6913F0030F4ED02046F0
:1017D000FFF7B6FF0023237723681A6912F0100F72
:1017E00012D0DA6812F0100F0ED06FF010021A61EA
:1017F000082323772368DB6913F4407F3DD020461C
:10180000FFF79EFF0023237723681A6912F0010F68
:1018100003D0DA6812F0010F36D123681A6912F08A
:10182000800F03D0DA6812F0800F34D123681A6970
:1018300012F0400F03D0DA6812F0400F32D1236863
:101840001A6912F0200F03D0DA6812F0200F30D19D
:1018500010BDFFF774FF2046FFF773FF8AE72046AD
:10186000FFF76DFF2046FFF76CFF9BE72046FFF771
:1018700066FF2046FFF765FFACE72046FFF75FFFF6
:101880002046FFF75EFFBDE76FF001021A612046B8
:1018900000F0C4F8C1E76FF080021A61204600F042
:1018A00065F8C3E76FF040021A612046FFF74AFF70
:1018B000C5E76FF020021A61204600F056F8C7E72E
:1018C00003681C4A904227D0B0F1804F24D0A2F583
:1018D0009432904220D002F5806290421CD0154A8A
:1018E00090421ED0B0F1804F1BD0A2F594329042AE
:1018F00017D002F58062904213D023F080034A692A
:10190000134303608B68C3620B688362094B984280
:101910000CD001234361704723F070034A681343DE
:10192000DDE723F44073CA681343E6E70B690363FA
:10193000EFE700BF002C0140A8B110B5044690F8B5
:101940003D305BB1022384F83D30211D2068FFF754
:10195000B7FF012384F83D30002010BD80F83C30F3
:10196000FFF7E0FEEEE70120704770477047000088
:1019700084B00F4B9A6942F010029A619A6902F0A2
:1019800010020192019A9A6942F020029A619A69C2
:1019900002F020020292029A9A6942F004029A61CD
:1019A0009B6903F004030393039B04B0704700BFDB
:1019B0000010024030B591B02822002106A800F0A6
:1019C00019F90024019402940394049405940122CB
:1019D00006924FF4803307930A9202250D950E93D9
:1019E0004FF4E0130F9306A8FFF774FB0F23019346
:1019F000029503944FF4806304930594294601A84B
:101A0000FFF78EFD11B030BD08B5FFF7D9FAFFF72B
:101A1000D1FFFFF7ADFFFFF737F9FEE708B5026822
:101A2000034B9A4200D008BDFFF7DCFAFBE700BF8A
:101A30000008004082B00E4B9A6942F001029A61A0
:101A40009A6902F001020092009ADA6942F080522B
:101A5000DA61DB6903F080530193019B054A536807
:101A600023F0E06343F00073536002B0704700BF9F
:101A7000001002400000014000B589B0002201467C
:101A80001E20FFF7D3FA1E20FFF702FB154BDA6981
:101A900042F00402DA61DB6903F004030193019B65
:101AA00002A903A8FFF720FEFFF70EFE43000E4831
:101AB000A0FB03239B0C013B0C480D4A026040F243
:101AC000E732C2604360002303618360FFF734FFA5
:101AD00018B1012009B05DF804FB0448FFF723FEAC
:101AE000F8E700BF0010024083DE1B43380B0020E4
:101AF000000800407047FEE7FEE7FEE7FEE770479C
:101B000008B5FFF755FA0248FFF71DFE08BD00BFF4
:101B1000380B00200F4B1A6842F001021A60596816
:101B20000D4A0A405A601A6822F0847222F4803208
:101B30001A601A6822F480221A605A6822F4FE029F
:101B40005A604FF41F029A604FF00062034B9A6094
:101B5000704700BF001002400000FFF800ED00E0F9
:101B6000002103E00B4B5B58435004310A480B4BF8
:101B700042189A42F6D30A4A02E0002342F8043B94
:101B8000084B9A42F9D3FFF7C5FF00F00FF8FFF7B3
:101B90003BFF7047741C0008000000200C00002070
:101BA0000C000020780B0020FEE7000070B5002537
:101BB0000C4E0D4CA41BA410A54209D100F022F834
:101BC00000250A4E0A4CA41BA410A54205D170BDE5
:101BD00056F8253098470135EEE756F825309847F6
:101BE0000135F2E76C1C00086C1C00086C1C000836
:101BF000701C000803460244934200D1704703F86A
:101C0000011BF9E7F8B500BFF8BC08BC9E46704759
:0C1C1000F8B500BFF8BC08BC9E46704749
:101C1C0002030405060708090A0B0C0D0E0F101021
:101C2C000102000049444C45000000005441534B54
:101C3C00310000005441534B32000000003525AAFE
:101C4C0001000135003555000000000000000000C7
:101C5C000102030406070809000000000102030446
:041C6C003501000836
:041C70001101000856
:0C1C7400AAAAAAAA0101000000A24A04CA
:0400000508001B6173
:00000001FF
